{
	"FundMe.sol": {
		"FundMe": {
			"abi": [
				{
					"inputs": [
						{
							"internalType": "address",
							"name": "funder",
							"type": "address"
						}
					],
					"name": "addressToAmountFunded",
					"outputs": [
						{
							"internalType": "uint256",
							"name": "amountFunded",
							"type": "uint256"
						}
					],
					"stateMutability": "view",
					"type": "function"
				},
				{
					"inputs": [],
					"name": "fund",
					"outputs": [],
					"stateMutability": "payable",
					"type": "function"
				},
				{
					"inputs": [
						{
							"internalType": "uint256",
							"name": "",
							"type": "uint256"
						}
					],
					"name": "funders",
					"outputs": [
						{
							"internalType": "address",
							"name": "",
							"type": "address"
						}
					],
					"stateMutability": "view",
					"type": "function"
				},
				{
					"inputs": [
						{
							"internalType": "uint256",
							"name": "ethAmount",
							"type": "uint256"
						}
					],
					"name": "getConversionRate",
					"outputs": [
						{
							"internalType": "uint256",
							"name": "",
							"type": "uint256"
						}
					],
					"stateMutability": "view",
					"type": "function"
				},
				{
					"inputs": [],
					"name": "getPrice",
					"outputs": [
						{
							"internalType": "uint256",
							"name": "",
							"type": "uint256"
						}
					],
					"stateMutability": "view",
					"type": "function"
				},
				{
					"inputs": [],
					"name": "getVersion",
					"outputs": [
						{
							"internalType": "uint256",
							"name": "",
							"type": "uint256"
						}
					],
					"stateMutability": "view",
					"type": "function"
				},
				{
					"inputs": [],
					"name": "minimumUsd",
					"outputs": [
						{
							"internalType": "uint256",
							"name": "",
							"type": "uint256"
						}
					],
					"stateMutability": "view",
					"type": "function"
				}
			],
			"devdoc": {
				"kind": "dev",
				"methods": {},
				"version": 1
			},
			"evm": {
				"assembly": "    /* \"FundMe.sol\":766:2118  contract FundMe {... */\n  mstore(0x40, 0x80)\n    /* \"FundMe.sol\":817:821  5e18 */\n  0x4563918244f40000\n    /* \"FundMe.sol\":789:821  uint256 public minimumUsd = 5e18 */\n  0x00\n  sstore\n    /* \"FundMe.sol\":766:2118  contract FundMe {... */\n  callvalue\n  dup1\n  iszero\n  tag_1\n  jumpi\n  0x00\n  dup1\n  revert\ntag_1:\n  pop\n  dataSize(sub_0)\n  dup1\n  dataOffset(sub_0)\n  0x00\n  codecopy\n  0x00\n  return\nstop\n\nsub_0: assembly {\n        /* \"FundMe.sol\":766:2118  contract FundMe {... */\n      mstore(0x40, 0x80)\n      jumpi(tag_1, lt(calldatasize, 0x04))\n      shr(0xe0, calldataload(0x00))\n      dup1\n      0x6e5b6b28\n      gt\n      tag_9\n      jumpi\n      dup1\n      0x6e5b6b28\n      eq\n      tag_5\n      jumpi\n      dup1\n      0x98d5fdca\n      eq\n      tag_6\n      jumpi\n      dup1\n      0xb60d4288\n      eq\n      tag_7\n      jumpi\n      dup1\n      0xdc0d3dff\n      eq\n      tag_8\n      jumpi\n      jump(tag_1)\n    tag_9:\n      dup1\n      0x098de820\n      eq\n      tag_2\n      jumpi\n      dup1\n      0x0d8e6e2c\n      eq\n      tag_3\n      jumpi\n      dup1\n      0x3e47d6f3\n      eq\n      tag_4\n      jumpi\n    tag_1:\n      0x00\n      dup1\n      revert\n        /* \"FundMe.sol\":789:821  uint256 public minimumUsd = 5e18 */\n    tag_2:\n      callvalue\n      dup1\n      iszero\n      tag_10\n      jumpi\n      0x00\n      dup1\n      revert\n    tag_10:\n      pop\n      tag_11\n      tag_12\n      jump\t// in\n    tag_11:\n      mload(0x40)\n      tag_13\n      swap2\n      swap1\n      tag_14\n      jump\t// in\n    tag_13:\n      mload(0x40)\n      dup1\n      swap2\n      sub\n      swap1\n      return\n        /* \"FundMe.sol\":1962:2115  function getVersion() public view returns (uint256) {... */\n    tag_3:\n      callvalue\n      dup1\n      iszero\n      tag_15\n      jumpi\n      0x00\n      dup1\n      revert\n    tag_15:\n      pop\n      tag_16\n      tag_17\n      jump\t// in\n    tag_16:\n      mload(0x40)\n      tag_18\n      swap2\n      swap1\n      tag_14\n      jump\t// in\n    tag_18:\n      mload(0x40)\n      dup1\n      swap2\n      sub\n      swap1\n      return\n        /* \"FundMe.sol\":859:935  mapping(address funder => uint256 amountFunded) public addressToAmountFunded */\n    tag_4:\n      callvalue\n      dup1\n      iszero\n      tag_19\n      jumpi\n      0x00\n      dup1\n      revert\n    tag_19:\n      pop\n      tag_20\n      0x04\n      dup1\n      calldatasize\n      sub\n      dup2\n      add\n      swap1\n      tag_21\n      swap2\n      swap1\n      tag_22\n      jump\t// in\n    tag_21:\n      tag_23\n      jump\t// in\n    tag_20:\n      mload(0x40)\n      tag_24\n      swap2\n      swap1\n      tag_14\n      jump\t// in\n    tag_24:\n      mload(0x40)\n      dup1\n      swap2\n      sub\n      swap1\n      return\n        /* \"FundMe.sol\":1734:1954  function getConversionRate(uint256 ethAmount) public view returns(uint256) {... */\n    tag_5:\n      callvalue\n      dup1\n      iszero\n      tag_25\n      jumpi\n      0x00\n      dup1\n      revert\n    tag_25:\n      pop\n      tag_26\n      0x04\n      dup1\n      calldatasize\n      sub\n      dup2\n      add\n      swap1\n      tag_27\n      swap2\n      swap1\n      tag_28\n      jump\t// in\n    tag_27:\n      tag_29\n      jump\t// in\n    tag_26:\n      mload(0x40)\n      tag_30\n      swap2\n      swap1\n      tag_14\n      jump\t// in\n    tag_30:\n      mload(0x40)\n      dup1\n      swap2\n      sub\n      swap1\n      return\n        /* \"FundMe.sol\":1246:1728  function getPrice() public view returns(uint256) {... */\n    tag_6:\n      callvalue\n      dup1\n      iszero\n      tag_31\n      jumpi\n      0x00\n      dup1\n      revert\n    tag_31:\n      pop\n      tag_32\n      tag_33\n      jump\t// in\n    tag_32:\n      mload(0x40)\n      tag_34\n      swap2\n      swap1\n      tag_14\n      jump\t// in\n    tag_34:\n      mload(0x40)\n      dup1\n      swap2\n      sub\n      swap1\n      return\n        /* \"FundMe.sol\":944:1198  function fund() public payable {... */\n    tag_7:\n      tag_35\n      tag_36\n      jump\t// in\n    tag_35:\n      stop\n        /* \"FundMe.sol\":828:852  address[] public funders */\n    tag_8:\n      callvalue\n      dup1\n      iszero\n      tag_37\n      jumpi\n      0x00\n      dup1\n      revert\n    tag_37:\n      pop\n      tag_38\n      0x04\n      dup1\n      calldatasize\n      sub\n      dup2\n      add\n      swap1\n      tag_39\n      swap2\n      swap1\n      tag_28\n      jump\t// in\n    tag_39:\n      tag_40\n      jump\t// in\n    tag_38:\n      mload(0x40)\n      tag_41\n      swap2\n      swap1\n      tag_42\n      jump\t// in\n    tag_41:\n      mload(0x40)\n      dup1\n      swap2\n      sub\n      swap1\n      return\n        /* \"FundMe.sol\":789:821  uint256 public minimumUsd = 5e18 */\n    tag_12:\n      sload(0x00)\n      dup2\n      jump\t// out\n        /* \"FundMe.sol\":1962:2115  function getVersion() public view returns (uint256) {... */\n    tag_17:\n        /* \"FundMe.sol\":2005:2012  uint256 */\n      0x00\n        /* \"FundMe.sol\":2054:2096  0x694AA1769357215DE4FAC081bf1f309aDC325306 */\n      0x694aa1769357215de4fac081bf1f309adc325306\n        /* \"FundMe.sol\":2032:2105  AggregatorV3Interface(0x694AA1769357215DE4FAC081bf1f309aDC325306).version */\n      0xffffffffffffffffffffffffffffffffffffffff\n      and\n      0x54fd4d50\n        /* \"FundMe.sol\":2032:2107  AggregatorV3Interface(0x694AA1769357215DE4FAC081bf1f309aDC325306).version() */\n      mload(0x40)\n      dup2\n      0xffffffff\n      and\n      0xe0\n      shl\n      dup2\n      mstore\n      0x04\n      add\n      0x20\n      mload(0x40)\n      dup1\n      dup4\n      sub\n      dup2\n      dup7\n      gas\n      staticcall\n      iszero\n      dup1\n      iszero\n      tag_45\n      jumpi\n      returndatasize\n      0x00\n      dup1\n      returndatacopy\n      revert(0x00, returndatasize)\n    tag_45:\n      pop\n      pop\n      pop\n      pop\n      mload(0x40)\n      returndatasize\n      not(0x1f)\n      0x1f\n      dup3\n      add\n      and\n      dup3\n      add\n      dup1\n      0x40\n      mstore\n      pop\n      dup2\n      add\n      swap1\n      tag_46\n      swap2\n      swap1\n      tag_47\n      jump\t// in\n    tag_46:\n        /* \"FundMe.sol\":2025:2107  return AggregatorV3Interface(0x694AA1769357215DE4FAC081bf1f309aDC325306).version() */\n      swap1\n      pop\n        /* \"FundMe.sol\":1962:2115  function getVersion() public view returns (uint256) {... */\n      swap1\n      jump\t// out\n        /* \"FundMe.sol\":859:935  mapping(address funder => uint256 amountFunded) public addressToAmountFunded */\n    tag_23:\n      mstore(0x20, 0x02)\n      dup1\n      0x00\n      mstore\n      keccak256(0x00, 0x40)\n      0x00\n      swap2\n      pop\n      swap1\n      pop\n      sload\n      dup2\n      jump\t// out\n        /* \"FundMe.sol\":1734:1954  function getConversionRate(uint256 ethAmount) public view returns(uint256) {... */\n    tag_29:\n        /* \"FundMe.sol\":1800:1807  uint256 */\n      0x00\n        /* \"FundMe.sol\":1820:1836  uint256 ethPrice */\n      dup1\n        /* \"FundMe.sol\":1839:1849  getPrice() */\n      tag_49\n        /* \"FundMe.sol\":1839:1847  getPrice */\n      tag_33\n        /* \"FundMe.sol\":1839:1849  getPrice() */\n      jump\t// in\n    tag_49:\n        /* \"FundMe.sol\":1820:1849  uint256 ethPrice = getPrice() */\n      swap1\n      pop\n        /* \"FundMe.sol\":1860:1882  uint256 ethAmountInUsd */\n      0x00\n        /* \"FundMe.sol\":1910:1914  1e18 */\n      0x0de0b6b3a7640000\n        /* \"FundMe.sol\":1897:1906  ethAmount */\n      dup5\n        /* \"FundMe.sol\":1886:1894  ethPrice */\n      dup4\n        /* \"FundMe.sol\":1886:1906  ethPrice * ethAmount */\n      tag_50\n      swap2\n      swap1\n      tag_51\n      jump\t// in\n    tag_50:\n        /* \"FundMe.sol\":1885:1914  (ethPrice * ethAmount) / 1e18 */\n      tag_52\n      swap2\n      swap1\n      tag_53\n      jump\t// in\n    tag_52:\n        /* \"FundMe.sol\":1860:1914  uint256 ethAmountInUsd = (ethPrice * ethAmount) / 1e18 */\n      swap1\n      pop\n        /* \"FundMe.sol\":1932:1946  ethAmountInUsd */\n      dup1\n        /* \"FundMe.sol\":1925:1946  return ethAmountInUsd */\n      swap3\n      pop\n      pop\n      pop\n        /* \"FundMe.sol\":1734:1954  function getConversionRate(uint256 ethAmount) public view returns(uint256) {... */\n      swap2\n      swap1\n      pop\n      jump\t// out\n        /* \"FundMe.sol\":1246:1728  function getPrice() public view returns(uint256) {... */\n    tag_33:\n        /* \"FundMe.sol\":1286:1293  uint256 */\n      0x00\n        /* \"FundMe.sol\":1452:1483  AggregatorV3Interface priceFeed */\n      dup1\n        /* \"FundMe.sol\":1508:1550  0x694AA1769357215DE4FAC081bf1f309aDC325306 */\n      0x694aa1769357215de4fac081bf1f309adc325306\n        /* \"FundMe.sol\":1452:1551  AggregatorV3Interface priceFeed = AggregatorV3Interface(0x694AA1769357215DE4FAC081bf1f309aDC325306) */\n      swap1\n      pop\n        /* \"FundMe.sol\":1564:1577  int256 answer */\n      0x00\n        /* \"FundMe.sol\":1584:1593  priceFeed */\n      dup2\n        /* \"FundMe.sol\":1584:1609  priceFeed.latestRoundData */\n      0xffffffffffffffffffffffffffffffffffffffff\n      and\n      0xfeaf968c\n        /* \"FundMe.sol\":1584:1611  priceFeed.latestRoundData() */\n      mload(0x40)\n      dup2\n      0xffffffff\n      and\n      0xe0\n      shl\n      dup2\n      mstore\n      0x04\n      add\n      0xa0\n      mload(0x40)\n      dup1\n      dup4\n      sub\n      dup2\n      dup7\n      gas\n      staticcall\n      iszero\n      dup1\n      iszero\n      tag_56\n      jumpi\n      returndatasize\n      0x00\n      dup1\n      returndatacopy\n      revert(0x00, returndatasize)\n    tag_56:\n      pop\n      pop\n      pop\n      pop\n      mload(0x40)\n      returndatasize\n      not(0x1f)\n      0x1f\n      dup3\n      add\n      and\n      dup3\n      add\n      dup1\n      0x40\n      mstore\n      pop\n      dup2\n      add\n      swap1\n      tag_57\n      swap2\n      swap1\n      tag_58\n      jump\t// in\n    tag_57:\n        /* \"FundMe.sol\":1562:1611  (,int256 answer,,,) = priceFeed.latestRoundData() */\n      pop\n      pop\n      pop\n      swap2\n      pop\n      pop\n        /* \"FundMe.sol\":1713:1717  1e10 */\n      0x02540be400\n        /* \"FundMe.sol\":1704:1710  answer */\n      dup2\n        /* \"FundMe.sol\":1704:1717  answer * 1e10 */\n      tag_59\n      swap2\n      swap1\n      tag_60\n      jump\t// in\n    tag_59:\n        /* \"FundMe.sol\":1689:1718  return uint256(answer * 1e10) */\n      swap3\n      pop\n      pop\n      pop\n        /* \"FundMe.sol\":1246:1728  function getPrice() public view returns(uint256) {... */\n      swap1\n      jump\t// out\n        /* \"FundMe.sol\":944:1198  function fund() public payable {... */\n    tag_36:\n        /* \"FundMe.sol\":1026:1036  minimumUsd */\n      sload(0x00)\n        /* \"FundMe.sol\":994:1022  getConversionRate(msg.value) */\n      tag_62\n        /* \"FundMe.sol\":1012:1021  msg.value */\n      callvalue\n        /* \"FundMe.sol\":994:1011  getConversionRate */\n      tag_29\n        /* \"FundMe.sol\":994:1022  getConversionRate(msg.value) */\n      jump\t// in\n    tag_62:\n        /* \"FundMe.sol\":994:1036  getConversionRate(msg.value) >= minimumUsd */\n      lt\n      iszero\n        /* \"FundMe.sol\":986:1063  require(getConversionRate(msg.value) >= minimumUsd, \"didn't sent enough ETH\") */\n      tag_63\n      jumpi\n      mload(0x40)\n      0x08c379a000000000000000000000000000000000000000000000000000000000\n      dup2\n      mstore\n      0x04\n      add\n      tag_64\n      swap1\n      tag_65\n      jump\t// in\n    tag_64:\n      mload(0x40)\n      dup1\n      swap2\n      sub\n      swap1\n      revert\n    tag_63:\n        /* \"FundMe.sol\":1074:1081  funders */\n      0x01\n        /* \"FundMe.sol\":1087:1097  msg.sender */\n      caller\n        /* \"FundMe.sol\":1074:1098  funders.push(msg.sender) */\n      swap1\n      dup1\n      0x01\n      dup2\n      sload\n      add\n      dup1\n      dup3\n      sstore\n      dup1\n      swap2\n      pop\n      pop\n      0x01\n      swap1\n      sub\n      swap1\n      0x00\n      mstore\n      keccak256(0x00, 0x20)\n      add\n      0x00\n      swap1\n      swap2\n      swap1\n      swap2\n      swap1\n      swap2\n      0x0100\n      exp\n      dup2\n      sload\n      dup2\n      0xffffffffffffffffffffffffffffffffffffffff\n      mul\n      not\n      and\n      swap1\n      dup4\n      0xffffffffffffffffffffffffffffffffffffffff\n      and\n      mul\n      or\n      swap1\n      sstore\n      pop\n        /* \"FundMe.sol\":1181:1190  msg.value */\n      callvalue\n        /* \"FundMe.sol\":1145:1166  addressToAmountFunded */\n      0x02\n        /* \"FundMe.sol\":1145:1178  addressToAmountFunded[msg.sender] */\n      0x00\n        /* \"FundMe.sol\":1167:1177  msg.sender */\n      caller\n        /* \"FundMe.sol\":1145:1178  addressToAmountFunded[msg.sender] */\n      0xffffffffffffffffffffffffffffffffffffffff\n      and\n      0xffffffffffffffffffffffffffffffffffffffff\n      and\n      dup2\n      mstore\n      0x20\n      add\n      swap1\n      dup2\n      mstore\n      0x20\n      add\n      0x00\n      keccak256\n      sload\n        /* \"FundMe.sol\":1145:1190  addressToAmountFunded[msg.sender] + msg.value */\n      tag_67\n      swap2\n      swap1\n      tag_68\n      jump\t// in\n    tag_67:\n        /* \"FundMe.sol\":1109:1130  addressToAmountFunded */\n      0x02\n        /* \"FundMe.sol\":1109:1142  addressToAmountFunded[msg.sender] */\n      0x00\n        /* \"FundMe.sol\":1131:1141  msg.sender */\n      caller\n        /* \"FundMe.sol\":1109:1142  addressToAmountFunded[msg.sender] */\n      0xffffffffffffffffffffffffffffffffffffffff\n      and\n      0xffffffffffffffffffffffffffffffffffffffff\n      and\n      dup2\n      mstore\n      0x20\n      add\n      swap1\n      dup2\n      mstore\n      0x20\n      add\n      0x00\n      keccak256\n        /* \"FundMe.sol\":1109:1190  addressToAmountFunded[msg.sender] = addressToAmountFunded[msg.sender] + msg.value */\n      dup2\n      swap1\n      sstore\n      pop\n        /* \"FundMe.sol\":944:1198  function fund() public payable {... */\n      jump\t// out\n        /* \"FundMe.sol\":828:852  address[] public funders */\n    tag_40:\n      0x01\n      dup2\n      dup2\n      sload\n      dup2\n      lt\n      tag_69\n      jumpi\n      0x00\n      dup1\n      revert\n    tag_69:\n      swap1\n      0x00\n      mstore\n      keccak256(0x00, 0x20)\n      add\n      0x00\n      swap2\n      pop\n      sload\n      swap1\n      0x0100\n      exp\n      swap1\n      div\n      0xffffffffffffffffffffffffffffffffffffffff\n      and\n      dup2\n      jump\t// out\n        /* \"#utility.yul\":7:84   */\n    tag_71:\n        /* \"#utility.yul\":44:51   */\n      0x00\n        /* \"#utility.yul\":73:78   */\n      dup2\n        /* \"#utility.yul\":62:78   */\n      swap1\n      pop\n        /* \"#utility.yul\":7:84   */\n      swap2\n      swap1\n      pop\n      jump\t// out\n        /* \"#utility.yul\":90:208   */\n    tag_72:\n        /* \"#utility.yul\":177:201   */\n      tag_98\n        /* \"#utility.yul\":195:200   */\n      dup2\n        /* \"#utility.yul\":177:201   */\n      tag_71\n      jump\t// in\n    tag_98:\n        /* \"#utility.yul\":172:175   */\n      dup3\n        /* \"#utility.yul\":165:202   */\n      mstore\n        /* \"#utility.yul\":90:208   */\n      pop\n      pop\n      jump\t// out\n        /* \"#utility.yul\":214:436   */\n    tag_14:\n        /* \"#utility.yul\":307:311   */\n      0x00\n        /* \"#utility.yul\":345:347   */\n      0x20\n        /* \"#utility.yul\":334:343   */\n      dup3\n        /* \"#utility.yul\":330:348   */\n      add\n        /* \"#utility.yul\":322:348   */\n      swap1\n      pop\n        /* \"#utility.yul\":358:429   */\n      tag_100\n        /* \"#utility.yul\":426:427   */\n      0x00\n        /* \"#utility.yul\":415:424   */\n      dup4\n        /* \"#utility.yul\":411:428   */\n      add\n        /* \"#utility.yul\":402:408   */\n      dup5\n        /* \"#utility.yul\":358:429   */\n      tag_72\n      jump\t// in\n    tag_100:\n        /* \"#utility.yul\":214:436   */\n      swap3\n      swap2\n      pop\n      pop\n      jump\t// out\n        /* \"#utility.yul\":523:640   */\n    tag_74:\n        /* \"#utility.yul\":632:633   */\n      0x00\n        /* \"#utility.yul\":629:630   */\n      dup1\n        /* \"#utility.yul\":622:634   */\n      revert\n        /* \"#utility.yul\":769:895   */\n    tag_76:\n        /* \"#utility.yul\":806:813   */\n      0x00\n        /* \"#utility.yul\":846:888   */\n      0xffffffffffffffffffffffffffffffffffffffff\n        /* \"#utility.yul\":839:844   */\n      dup3\n        /* \"#utility.yul\":835:889   */\n      and\n        /* \"#utility.yul\":824:889   */\n      swap1\n      pop\n        /* \"#utility.yul\":769:895   */\n      swap2\n      swap1\n      pop\n      jump\t// out\n        /* \"#utility.yul\":901:997   */\n    tag_77:\n        /* \"#utility.yul\":938:945   */\n      0x00\n        /* \"#utility.yul\":967:991   */\n      tag_106\n        /* \"#utility.yul\":985:990   */\n      dup3\n        /* \"#utility.yul\":967:991   */\n      tag_76\n      jump\t// in\n    tag_106:\n        /* \"#utility.yul\":956:991   */\n      swap1\n      pop\n        /* \"#utility.yul\":901:997   */\n      swap2\n      swap1\n      pop\n      jump\t// out\n        /* \"#utility.yul\":1003:1125   */\n    tag_78:\n        /* \"#utility.yul\":1076:1100   */\n      tag_108\n        /* \"#utility.yul\":1094:1099   */\n      dup2\n        /* \"#utility.yul\":1076:1100   */\n      tag_77\n      jump\t// in\n    tag_108:\n        /* \"#utility.yul\":1069:1074   */\n      dup2\n        /* \"#utility.yul\":1066:1101   */\n      eq\n        /* \"#utility.yul\":1056:1119   */\n      tag_109\n      jumpi\n        /* \"#utility.yul\":1115:1116   */\n      0x00\n        /* \"#utility.yul\":1112:1113   */\n      dup1\n        /* \"#utility.yul\":1105:1117   */\n      revert\n        /* \"#utility.yul\":1056:1119   */\n    tag_109:\n        /* \"#utility.yul\":1003:1125   */\n      pop\n      jump\t// out\n        /* \"#utility.yul\":1131:1270   */\n    tag_79:\n        /* \"#utility.yul\":1177:1182   */\n      0x00\n        /* \"#utility.yul\":1215:1221   */\n      dup2\n        /* \"#utility.yul\":1202:1222   */\n      calldataload\n        /* \"#utility.yul\":1193:1222   */\n      swap1\n      pop\n        /* \"#utility.yul\":1231:1264   */\n      tag_111\n        /* \"#utility.yul\":1258:1263   */\n      dup2\n        /* \"#utility.yul\":1231:1264   */\n      tag_78\n      jump\t// in\n    tag_111:\n        /* \"#utility.yul\":1131:1270   */\n      swap3\n      swap2\n      pop\n      pop\n      jump\t// out\n        /* \"#utility.yul\":1276:1605   */\n    tag_22:\n        /* \"#utility.yul\":1335:1341   */\n      0x00\n        /* \"#utility.yul\":1384:1386   */\n      0x20\n        /* \"#utility.yul\":1372:1381   */\n      dup3\n        /* \"#utility.yul\":1363:1370   */\n      dup5\n        /* \"#utility.yul\":1359:1382   */\n      sub\n        /* \"#utility.yul\":1355:1387   */\n      slt\n        /* \"#utility.yul\":1352:1471   */\n      iszero\n      tag_113\n      jumpi\n        /* \"#utility.yul\":1390:1469   */\n      tag_114\n      tag_74\n      jump\t// in\n    tag_114:\n        /* \"#utility.yul\":1352:1471   */\n    tag_113:\n        /* \"#utility.yul\":1510:1511   */\n      0x00\n        /* \"#utility.yul\":1535:1588   */\n      tag_115\n        /* \"#utility.yul\":1580:1587   */\n      dup5\n        /* \"#utility.yul\":1571:1577   */\n      dup3\n        /* \"#utility.yul\":1560:1569   */\n      dup6\n        /* \"#utility.yul\":1556:1578   */\n      add\n        /* \"#utility.yul\":1535:1588   */\n      tag_79\n      jump\t// in\n    tag_115:\n        /* \"#utility.yul\":1525:1588   */\n      swap2\n      pop\n        /* \"#utility.yul\":1481:1598   */\n      pop\n        /* \"#utility.yul\":1276:1605   */\n      swap3\n      swap2\n      pop\n      pop\n      jump\t// out\n        /* \"#utility.yul\":1611:1733   */\n    tag_80:\n        /* \"#utility.yul\":1684:1708   */\n      tag_117\n        /* \"#utility.yul\":1702:1707   */\n      dup2\n        /* \"#utility.yul\":1684:1708   */\n      tag_71\n      jump\t// in\n    tag_117:\n        /* \"#utility.yul\":1677:1682   */\n      dup2\n        /* \"#utility.yul\":1674:1709   */\n      eq\n        /* \"#utility.yul\":1664:1727   */\n      tag_118\n      jumpi\n        /* \"#utility.yul\":1723:1724   */\n      0x00\n        /* \"#utility.yul\":1720:1721   */\n      dup1\n        /* \"#utility.yul\":1713:1725   */\n      revert\n        /* \"#utility.yul\":1664:1727   */\n    tag_118:\n        /* \"#utility.yul\":1611:1733   */\n      pop\n      jump\t// out\n        /* \"#utility.yul\":1739:1878   */\n    tag_81:\n        /* \"#utility.yul\":1785:1790   */\n      0x00\n        /* \"#utility.yul\":1823:1829   */\n      dup2\n        /* \"#utility.yul\":1810:1830   */\n      calldataload\n        /* \"#utility.yul\":1801:1830   */\n      swap1\n      pop\n        /* \"#utility.yul\":1839:1872   */\n      tag_120\n        /* \"#utility.yul\":1866:1871   */\n      dup2\n        /* \"#utility.yul\":1839:1872   */\n      tag_80\n      jump\t// in\n    tag_120:\n        /* \"#utility.yul\":1739:1878   */\n      swap3\n      swap2\n      pop\n      pop\n      jump\t// out\n        /* \"#utility.yul\":1884:2213   */\n    tag_28:\n        /* \"#utility.yul\":1943:1949   */\n      0x00\n        /* \"#utility.yul\":1992:1994   */\n      0x20\n        /* \"#utility.yul\":1980:1989   */\n      dup3\n        /* \"#utility.yul\":1971:1978   */\n      dup5\n        /* \"#utility.yul\":1967:1990   */\n      sub\n        /* \"#utility.yul\":1963:1995   */\n      slt\n        /* \"#utility.yul\":1960:2079   */\n      iszero\n      tag_122\n      jumpi\n        /* \"#utility.yul\":1998:2077   */\n      tag_123\n      tag_74\n      jump\t// in\n    tag_123:\n        /* \"#utility.yul\":1960:2079   */\n    tag_122:\n        /* \"#utility.yul\":2118:2119   */\n      0x00\n        /* \"#utility.yul\":2143:2196   */\n      tag_124\n        /* \"#utility.yul\":2188:2195   */\n      dup5\n        /* \"#utility.yul\":2179:2185   */\n      dup3\n        /* \"#utility.yul\":2168:2177   */\n      dup6\n        /* \"#utility.yul\":2164:2186   */\n      add\n        /* \"#utility.yul\":2143:2196   */\n      tag_81\n      jump\t// in\n    tag_124:\n        /* \"#utility.yul\":2133:2196   */\n      swap2\n      pop\n        /* \"#utility.yul\":2089:2206   */\n      pop\n        /* \"#utility.yul\":1884:2213   */\n      swap3\n      swap2\n      pop\n      pop\n      jump\t// out\n        /* \"#utility.yul\":2219:2337   */\n    tag_82:\n        /* \"#utility.yul\":2306:2330   */\n      tag_126\n        /* \"#utility.yul\":2324:2329   */\n      dup2\n        /* \"#utility.yul\":2306:2330   */\n      tag_77\n      jump\t// in\n    tag_126:\n        /* \"#utility.yul\":2301:2304   */\n      dup3\n        /* \"#utility.yul\":2294:2331   */\n      mstore\n        /* \"#utility.yul\":2219:2337   */\n      pop\n      pop\n      jump\t// out\n        /* \"#utility.yul\":2343:2565   */\n    tag_42:\n        /* \"#utility.yul\":2436:2440   */\n      0x00\n        /* \"#utility.yul\":2474:2476   */\n      0x20\n        /* \"#utility.yul\":2463:2472   */\n      dup3\n        /* \"#utility.yul\":2459:2477   */\n      add\n        /* \"#utility.yul\":2451:2477   */\n      swap1\n      pop\n        /* \"#utility.yul\":2487:2558   */\n      tag_128\n        /* \"#utility.yul\":2555:2556   */\n      0x00\n        /* \"#utility.yul\":2544:2553   */\n      dup4\n        /* \"#utility.yul\":2540:2557   */\n      add\n        /* \"#utility.yul\":2531:2537   */\n      dup5\n        /* \"#utility.yul\":2487:2558   */\n      tag_82\n      jump\t// in\n    tag_128:\n        /* \"#utility.yul\":2343:2565   */\n      swap3\n      swap2\n      pop\n      pop\n      jump\t// out\n        /* \"#utility.yul\":2571:2714   */\n    tag_83:\n        /* \"#utility.yul\":2628:2633   */\n      0x00\n        /* \"#utility.yul\":2659:2665   */\n      dup2\n        /* \"#utility.yul\":2653:2666   */\n      mload\n        /* \"#utility.yul\":2644:2666   */\n      swap1\n      pop\n        /* \"#utility.yul\":2675:2708   */\n      tag_130\n        /* \"#utility.yul\":2702:2707   */\n      dup2\n        /* \"#utility.yul\":2675:2708   */\n      tag_80\n      jump\t// in\n    tag_130:\n        /* \"#utility.yul\":2571:2714   */\n      swap3\n      swap2\n      pop\n      pop\n      jump\t// out\n        /* \"#utility.yul\":2720:3071   */\n    tag_47:\n        /* \"#utility.yul\":2790:2796   */\n      0x00\n        /* \"#utility.yul\":2839:2841   */\n      0x20\n        /* \"#utility.yul\":2827:2836   */\n      dup3\n        /* \"#utility.yul\":2818:2825   */\n      dup5\n        /* \"#utility.yul\":2814:2837   */\n      sub\n        /* \"#utility.yul\":2810:2842   */\n      slt\n        /* \"#utility.yul\":2807:2926   */\n      iszero\n      tag_132\n      jumpi\n        /* \"#utility.yul\":2845:2924   */\n      tag_133\n      tag_74\n      jump\t// in\n    tag_133:\n        /* \"#utility.yul\":2807:2926   */\n    tag_132:\n        /* \"#utility.yul\":2965:2966   */\n      0x00\n        /* \"#utility.yul\":2990:3054   */\n      tag_134\n        /* \"#utility.yul\":3046:3053   */\n      dup5\n        /* \"#utility.yul\":3037:3043   */\n      dup3\n        /* \"#utility.yul\":3026:3035   */\n      dup6\n        /* \"#utility.yul\":3022:3044   */\n      add\n        /* \"#utility.yul\":2990:3054   */\n      tag_83\n      jump\t// in\n    tag_134:\n        /* \"#utility.yul\":2980:3054   */\n      swap2\n      pop\n        /* \"#utility.yul\":2936:3064   */\n      pop\n        /* \"#utility.yul\":2720:3071   */\n      swap3\n      swap2\n      pop\n      pop\n      jump\t// out\n        /* \"#utility.yul\":3077:3257   */\n    tag_84:\n        /* \"#utility.yul\":3125:3202   */\n      0x4e487b7100000000000000000000000000000000000000000000000000000000\n        /* \"#utility.yul\":3122:3123   */\n      0x00\n        /* \"#utility.yul\":3115:3203   */\n      mstore\n        /* \"#utility.yul\":3222:3226   */\n      0x11\n        /* \"#utility.yul\":3219:3220   */\n      0x04\n        /* \"#utility.yul\":3212:3227   */\n      mstore\n        /* \"#utility.yul\":3246:3250   */\n      0x24\n        /* \"#utility.yul\":3243:3244   */\n      0x00\n        /* \"#utility.yul\":3236:3251   */\n      revert\n        /* \"#utility.yul\":3263:3673   */\n    tag_51:\n        /* \"#utility.yul\":3303:3310   */\n      0x00\n        /* \"#utility.yul\":3326:3346   */\n      tag_137\n        /* \"#utility.yul\":3344:3345   */\n      dup3\n        /* \"#utility.yul\":3326:3346   */\n      tag_71\n      jump\t// in\n    tag_137:\n        /* \"#utility.yul\":3321:3346   */\n      swap2\n      pop\n        /* \"#utility.yul\":3360:3380   */\n      tag_138\n        /* \"#utility.yul\":3378:3379   */\n      dup4\n        /* \"#utility.yul\":3360:3380   */\n      tag_71\n      jump\t// in\n    tag_138:\n        /* \"#utility.yul\":3355:3380   */\n      swap3\n      pop\n        /* \"#utility.yul\":3415:3416   */\n      dup3\n        /* \"#utility.yul\":3412:3413   */\n      dup3\n        /* \"#utility.yul\":3408:3417   */\n      mul\n        /* \"#utility.yul\":3437:3467   */\n      tag_139\n        /* \"#utility.yul\":3455:3466   */\n      dup2\n        /* \"#utility.yul\":3437:3467   */\n      tag_71\n      jump\t// in\n    tag_139:\n        /* \"#utility.yul\":3426:3467   */\n      swap2\n      pop\n        /* \"#utility.yul\":3616:3617   */\n      dup3\n        /* \"#utility.yul\":3607:3614   */\n      dup3\n        /* \"#utility.yul\":3603:3618   */\n      div\n        /* \"#utility.yul\":3600:3601   */\n      dup5\n        /* \"#utility.yul\":3597:3619   */\n      eq\n        /* \"#utility.yul\":3577:3578   */\n      dup4\n        /* \"#utility.yul\":3570:3579   */\n      iszero\n        /* \"#utility.yul\":3550:3633   */\n      or\n        /* \"#utility.yul\":3527:3666   */\n      tag_140\n      jumpi\n        /* \"#utility.yul\":3646:3664   */\n      tag_141\n      tag_84\n      jump\t// in\n    tag_141:\n        /* \"#utility.yul\":3527:3666   */\n    tag_140:\n        /* \"#utility.yul\":3311:3673   */\n      pop\n        /* \"#utility.yul\":3263:3673   */\n      swap3\n      swap2\n      pop\n      pop\n      jump\t// out\n        /* \"#utility.yul\":3679:3859   */\n    tag_85:\n        /* \"#utility.yul\":3727:3804   */\n      0x4e487b7100000000000000000000000000000000000000000000000000000000\n        /* \"#utility.yul\":3724:3725   */\n      0x00\n        /* \"#utility.yul\":3717:3805   */\n      mstore\n        /* \"#utility.yul\":3824:3828   */\n      0x12\n        /* \"#utility.yul\":3821:3822   */\n      0x04\n        /* \"#utility.yul\":3814:3829   */\n      mstore\n        /* \"#utility.yul\":3848:3852   */\n      0x24\n        /* \"#utility.yul\":3845:3846   */\n      0x00\n        /* \"#utility.yul\":3838:3853   */\n      revert\n        /* \"#utility.yul\":3865:4050   */\n    tag_53:\n        /* \"#utility.yul\":3905:3906   */\n      0x00\n        /* \"#utility.yul\":3922:3942   */\n      tag_144\n        /* \"#utility.yul\":3940:3941   */\n      dup3\n        /* \"#utility.yul\":3922:3942   */\n      tag_71\n      jump\t// in\n    tag_144:\n        /* \"#utility.yul\":3917:3942   */\n      swap2\n      pop\n        /* \"#utility.yul\":3956:3976   */\n      tag_145\n        /* \"#utility.yul\":3974:3975   */\n      dup4\n        /* \"#utility.yul\":3956:3976   */\n      tag_71\n      jump\t// in\n    tag_145:\n        /* \"#utility.yul\":3951:3976   */\n      swap3\n      pop\n        /* \"#utility.yul\":3995:3996   */\n      dup3\n        /* \"#utility.yul\":3985:4020   */\n      tag_146\n      jumpi\n        /* \"#utility.yul\":4000:4018   */\n      tag_147\n      tag_85\n      jump\t// in\n    tag_147:\n        /* \"#utility.yul\":3985:4020   */\n    tag_146:\n        /* \"#utility.yul\":4042:4043   */\n      dup3\n        /* \"#utility.yul\":4039:4040   */\n      dup3\n        /* \"#utility.yul\":4035:4044   */\n      div\n        /* \"#utility.yul\":4030:4044   */\n      swap1\n      pop\n        /* \"#utility.yul\":3865:4050   */\n      swap3\n      swap2\n      pop\n      pop\n      jump\t// out\n        /* \"#utility.yul\":4056:4161   */\n    tag_86:\n        /* \"#utility.yul\":4092:4099   */\n      0x00\n        /* \"#utility.yul\":4132:4154   */\n      0xffffffffffffffffffff\n        /* \"#utility.yul\":4125:4130   */\n      dup3\n        /* \"#utility.yul\":4121:4155   */\n      and\n        /* \"#utility.yul\":4110:4155   */\n      swap1\n      pop\n        /* \"#utility.yul\":4056:4161   */\n      swap2\n      swap1\n      pop\n      jump\t// out\n        /* \"#utility.yul\":4167:4287   */\n    tag_87:\n        /* \"#utility.yul\":4239:4262   */\n      tag_150\n        /* \"#utility.yul\":4256:4261   */\n      dup2\n        /* \"#utility.yul\":4239:4262   */\n      tag_86\n      jump\t// in\n    tag_150:\n        /* \"#utility.yul\":4232:4237   */\n      dup2\n        /* \"#utility.yul\":4229:4263   */\n      eq\n        /* \"#utility.yul\":4219:4281   */\n      tag_151\n      jumpi\n        /* \"#utility.yul\":4277:4278   */\n      0x00\n        /* \"#utility.yul\":4274:4275   */\n      dup1\n        /* \"#utility.yul\":4267:4279   */\n      revert\n        /* \"#utility.yul\":4219:4281   */\n    tag_151:\n        /* \"#utility.yul\":4167:4287   */\n      pop\n      jump\t// out\n        /* \"#utility.yul\":4293:4434   */\n    tag_88:\n        /* \"#utility.yul\":4349:4354   */\n      0x00\n        /* \"#utility.yul\":4380:4386   */\n      dup2\n        /* \"#utility.yul\":4374:4387   */\n      mload\n        /* \"#utility.yul\":4365:4387   */\n      swap1\n      pop\n        /* \"#utility.yul\":4396:4428   */\n      tag_153\n        /* \"#utility.yul\":4422:4427   */\n      dup2\n        /* \"#utility.yul\":4396:4428   */\n      tag_87\n      jump\t// in\n    tag_153:\n        /* \"#utility.yul\":4293:4434   */\n      swap3\n      swap2\n      pop\n      pop\n      jump\t// out\n        /* \"#utility.yul\":4440:4516   */\n    tag_89:\n        /* \"#utility.yul\":4476:4483   */\n      0x00\n        /* \"#utility.yul\":4505:4510   */\n      dup2\n        /* \"#utility.yul\":4494:4510   */\n      swap1\n      pop\n        /* \"#utility.yul\":4440:4516   */\n      swap2\n      swap1\n      pop\n      jump\t// out\n        /* \"#utility.yul\":4522:4642   */\n    tag_90:\n        /* \"#utility.yul\":4594:4617   */\n      tag_156\n        /* \"#utility.yul\":4611:4616   */\n      dup2\n        /* \"#utility.yul\":4594:4617   */\n      tag_89\n      jump\t// in\n    tag_156:\n        /* \"#utility.yul\":4587:4592   */\n      dup2\n        /* \"#utility.yul\":4584:4618   */\n      eq\n        /* \"#utility.yul\":4574:4636   */\n      tag_157\n      jumpi\n        /* \"#utility.yul\":4632:4633   */\n      0x00\n        /* \"#utility.yul\":4629:4630   */\n      dup1\n        /* \"#utility.yul\":4622:4634   */\n      revert\n        /* \"#utility.yul\":4574:4636   */\n    tag_157:\n        /* \"#utility.yul\":4522:4642   */\n      pop\n      jump\t// out\n        /* \"#utility.yul\":4648:4789   */\n    tag_91:\n        /* \"#utility.yul\":4704:4709   */\n      0x00\n        /* \"#utility.yul\":4735:4741   */\n      dup2\n        /* \"#utility.yul\":4729:4742   */\n      mload\n        /* \"#utility.yul\":4720:4742   */\n      swap1\n      pop\n        /* \"#utility.yul\":4751:4783   */\n      tag_159\n        /* \"#utility.yul\":4777:4782   */\n      dup2\n        /* \"#utility.yul\":4751:4783   */\n      tag_90\n      jump\t// in\n    tag_159:\n        /* \"#utility.yul\":4648:4789   */\n      swap3\n      swap2\n      pop\n      pop\n      jump\t// out\n        /* \"#utility.yul\":4795:5766   */\n    tag_58:\n        /* \"#utility.yul\":4898:4904   */\n      0x00\n        /* \"#utility.yul\":4906:4912   */\n      dup1\n        /* \"#utility.yul\":4914:4920   */\n      0x00\n        /* \"#utility.yul\":4922:4928   */\n      dup1\n        /* \"#utility.yul\":4930:4936   */\n      0x00\n        /* \"#utility.yul\":4979:4982   */\n      0xa0\n        /* \"#utility.yul\":4967:4976   */\n      dup7\n        /* \"#utility.yul\":4958:4965   */\n      dup9\n        /* \"#utility.yul\":4954:4977   */\n      sub\n        /* \"#utility.yul\":4950:4983   */\n      slt\n        /* \"#utility.yul\":4947:5067   */\n      iszero\n      tag_161\n      jumpi\n        /* \"#utility.yul\":4986:5065   */\n      tag_162\n      tag_74\n      jump\t// in\n    tag_162:\n        /* \"#utility.yul\":4947:5067   */\n    tag_161:\n        /* \"#utility.yul\":5106:5107   */\n      0x00\n        /* \"#utility.yul\":5131:5194   */\n      tag_163\n        /* \"#utility.yul\":5186:5193   */\n      dup9\n        /* \"#utility.yul\":5177:5183   */\n      dup3\n        /* \"#utility.yul\":5166:5175   */\n      dup10\n        /* \"#utility.yul\":5162:5184   */\n      add\n        /* \"#utility.yul\":5131:5194   */\n      tag_88\n      jump\t// in\n    tag_163:\n        /* \"#utility.yul\":5121:5194   */\n      swap6\n      pop\n        /* \"#utility.yul\":5077:5204   */\n      pop\n        /* \"#utility.yul\":5243:5245   */\n      0x20\n        /* \"#utility.yul\":5269:5332   */\n      tag_164\n        /* \"#utility.yul\":5324:5331   */\n      dup9\n        /* \"#utility.yul\":5315:5321   */\n      dup3\n        /* \"#utility.yul\":5304:5313   */\n      dup10\n        /* \"#utility.yul\":5300:5322   */\n      add\n        /* \"#utility.yul\":5269:5332   */\n      tag_91\n      jump\t// in\n    tag_164:\n        /* \"#utility.yul\":5259:5332   */\n      swap5\n      pop\n        /* \"#utility.yul\":5214:5342   */\n      pop\n        /* \"#utility.yul\":5381:5383   */\n      0x40\n        /* \"#utility.yul\":5407:5471   */\n      tag_165\n        /* \"#utility.yul\":5463:5470   */\n      dup9\n        /* \"#utility.yul\":5454:5460   */\n      dup3\n        /* \"#utility.yul\":5443:5452   */\n      dup10\n        /* \"#utility.yul\":5439:5461   */\n      add\n        /* \"#utility.yul\":5407:5471   */\n      tag_83\n      jump\t// in\n    tag_165:\n        /* \"#utility.yul\":5397:5471   */\n      swap4\n      pop\n        /* \"#utility.yul\":5352:5481   */\n      pop\n        /* \"#utility.yul\":5520:5522   */\n      0x60\n        /* \"#utility.yul\":5546:5610   */\n      tag_166\n        /* \"#utility.yul\":5602:5609   */\n      dup9\n        /* \"#utility.yul\":5593:5599   */\n      dup3\n        /* \"#utility.yul\":5582:5591   */\n      dup10\n        /* \"#utility.yul\":5578:5600   */\n      add\n        /* \"#utility.yul\":5546:5610   */\n      tag_83\n      jump\t// in\n    tag_166:\n        /* \"#utility.yul\":5536:5610   */\n      swap3\n      pop\n        /* \"#utility.yul\":5491:5620   */\n      pop\n        /* \"#utility.yul\":5659:5662   */\n      0x80\n        /* \"#utility.yul\":5686:5749   */\n      tag_167\n        /* \"#utility.yul\":5741:5748   */\n      dup9\n        /* \"#utility.yul\":5732:5738   */\n      dup3\n        /* \"#utility.yul\":5721:5730   */\n      dup10\n        /* \"#utility.yul\":5717:5739   */\n      add\n        /* \"#utility.yul\":5686:5749   */\n      tag_88\n      jump\t// in\n    tag_167:\n        /* \"#utility.yul\":5676:5749   */\n      swap2\n      pop\n        /* \"#utility.yul\":5630:5759   */\n      pop\n        /* \"#utility.yul\":4795:5766   */\n      swap3\n      swap6\n      pop\n      swap3\n      swap6\n      swap1\n      swap4\n      pop\n      jump\t// out\n        /* \"#utility.yul\":5772:6328   */\n    tag_60:\n        /* \"#utility.yul\":5811:5818   */\n      0x00\n        /* \"#utility.yul\":5834:5853   */\n      tag_169\n        /* \"#utility.yul\":5851:5852   */\n      dup3\n        /* \"#utility.yul\":5834:5853   */\n      tag_89\n      jump\t// in\n    tag_169:\n        /* \"#utility.yul\":5829:5853   */\n      swap2\n      pop\n        /* \"#utility.yul\":5867:5886   */\n      tag_170\n        /* \"#utility.yul\":5884:5885   */\n      dup4\n        /* \"#utility.yul\":5867:5886   */\n      tag_89\n      jump\t// in\n    tag_170:\n        /* \"#utility.yul\":5862:5886   */\n      swap3\n      pop\n        /* \"#utility.yul\":5921:5922   */\n      dup3\n        /* \"#utility.yul\":5918:5919   */\n      dup3\n        /* \"#utility.yul\":5914:5923   */\n      mul\n        /* \"#utility.yul\":5943:5972   */\n      tag_171\n        /* \"#utility.yul\":5960:5971   */\n      dup2\n        /* \"#utility.yul\":5943:5972   */\n      tag_89\n      jump\t// in\n    tag_171:\n        /* \"#utility.yul\":5932:5972   */\n      swap2\n      pop\n        /* \"#utility.yul\":6030:6096   */\n      0x8000000000000000000000000000000000000000000000000000000000000000\n        /* \"#utility.yul\":6027:6028   */\n      dup5\n        /* \"#utility.yul\":6024:6097   */\n      eq\n        /* \"#utility.yul\":6020:6021   */\n      0x00\n        /* \"#utility.yul\":6017:6018   */\n      dup5\n        /* \"#utility.yul\":6013:6022   */\n      slt\n        /* \"#utility.yul\":6009:6098   */\n      and\n        /* \"#utility.yul\":6006:6121   */\n      iszero\n      tag_172\n      jumpi\n        /* \"#utility.yul\":6101:6119   */\n      tag_173\n      tag_84\n      jump\t// in\n    tag_173:\n        /* \"#utility.yul\":6006:6121   */\n    tag_172:\n        /* \"#utility.yul\":6271:6272   */\n      dup3\n        /* \"#utility.yul\":6262:6269   */\n      dup3\n        /* \"#utility.yul\":6257:6273   */\n      sdiv\n        /* \"#utility.yul\":6254:6255   */\n      dup5\n        /* \"#utility.yul\":6251:6274   */\n      eq\n        /* \"#utility.yul\":6231:6232   */\n      dup4\n        /* \"#utility.yul\":6224:6233   */\n      iszero\n        /* \"#utility.yul\":6204:6288   */\n      or\n        /* \"#utility.yul\":6181:6321   */\n      tag_174\n      jumpi\n        /* \"#utility.yul\":6301:6319   */\n      tag_175\n      tag_84\n      jump\t// in\n    tag_175:\n        /* \"#utility.yul\":6181:6321   */\n    tag_174:\n        /* \"#utility.yul\":5819:6328   */\n      pop\n        /* \"#utility.yul\":5772:6328   */\n      swap3\n      swap2\n      pop\n      pop\n      jump\t// out\n        /* \"#utility.yul\":6334:6503   */\n    tag_92:\n        /* \"#utility.yul\":6418:6429   */\n      0x00\n        /* \"#utility.yul\":6452:6458   */\n      dup3\n        /* \"#utility.yul\":6447:6450   */\n      dup3\n        /* \"#utility.yul\":6440:6459   */\n      mstore\n        /* \"#utility.yul\":6492:6496   */\n      0x20\n        /* \"#utility.yul\":6487:6490   */\n      dup3\n        /* \"#utility.yul\":6483:6497   */\n      add\n        /* \"#utility.yul\":6468:6497   */\n      swap1\n      pop\n        /* \"#utility.yul\":6334:6503   */\n      swap3\n      swap2\n      pop\n      pop\n      jump\t// out\n        /* \"#utility.yul\":6509:6681   */\n    tag_93:\n        /* \"#utility.yul\":6649:6673   */\n      0x6469646e27742073656e7420656e6f7567682045544800000000000000000000\n        /* \"#utility.yul\":6645:6646   */\n      0x00\n        /* \"#utility.yul\":6637:6643   */\n      dup3\n        /* \"#utility.yul\":6633:6647   */\n      add\n        /* \"#utility.yul\":6626:6674   */\n      mstore\n        /* \"#utility.yul\":6509:6681   */\n      pop\n      jump\t// out\n        /* \"#utility.yul\":6687:7053   */\n    tag_94:\n        /* \"#utility.yul\":6829:6832   */\n      0x00\n        /* \"#utility.yul\":6850:6917   */\n      tag_179\n        /* \"#utility.yul\":6914:6916   */\n      0x16\n        /* \"#utility.yul\":6909:6912   */\n      dup4\n        /* \"#utility.yul\":6850:6917   */\n      tag_92\n      jump\t// in\n    tag_179:\n        /* \"#utility.yul\":6843:6917   */\n      swap2\n      pop\n        /* \"#utility.yul\":6926:7019   */\n      tag_180\n        /* \"#utility.yul\":7015:7018   */\n      dup3\n        /* \"#utility.yul\":6926:7019   */\n      tag_93\n      jump\t// in\n    tag_180:\n        /* \"#utility.yul\":7044:7046   */\n      0x20\n        /* \"#utility.yul\":7039:7042   */\n      dup3\n        /* \"#utility.yul\":7035:7047   */\n      add\n        /* \"#utility.yul\":7028:7047   */\n      swap1\n      pop\n        /* \"#utility.yul\":6687:7053   */\n      swap2\n      swap1\n      pop\n      jump\t// out\n        /* \"#utility.yul\":7059:7478   */\n    tag_65:\n        /* \"#utility.yul\":7225:7229   */\n      0x00\n        /* \"#utility.yul\":7263:7265   */\n      0x20\n        /* \"#utility.yul\":7252:7261   */\n      dup3\n        /* \"#utility.yul\":7248:7266   */\n      add\n        /* \"#utility.yul\":7240:7266   */\n      swap1\n      pop\n        /* \"#utility.yul\":7312:7321   */\n      dup2\n        /* \"#utility.yul\":7306:7310   */\n      dup2\n        /* \"#utility.yul\":7302:7322   */\n      sub\n        /* \"#utility.yul\":7298:7299   */\n      0x00\n        /* \"#utility.yul\":7287:7296   */\n      dup4\n        /* \"#utility.yul\":7283:7300   */\n      add\n        /* \"#utility.yul\":7276:7323   */\n      mstore\n        /* \"#utility.yul\":7340:7471   */\n      tag_182\n        /* \"#utility.yul\":7466:7470   */\n      dup2\n        /* \"#utility.yul\":7340:7471   */\n      tag_94\n      jump\t// in\n    tag_182:\n        /* \"#utility.yul\":7332:7471   */\n      swap1\n      pop\n        /* \"#utility.yul\":7059:7478   */\n      swap2\n      swap1\n      pop\n      jump\t// out\n        /* \"#utility.yul\":7484:7675   */\n    tag_68:\n        /* \"#utility.yul\":7524:7527   */\n      0x00\n        /* \"#utility.yul\":7543:7563   */\n      tag_184\n        /* \"#utility.yul\":7561:7562   */\n      dup3\n        /* \"#utility.yul\":7543:7563   */\n      tag_71\n      jump\t// in\n    tag_184:\n        /* \"#utility.yul\":7538:7563   */\n      swap2\n      pop\n        /* \"#utility.yul\":7577:7597   */\n      tag_185\n        /* \"#utility.yul\":7595:7596   */\n      dup4\n        /* \"#utility.yul\":7577:7597   */\n      tag_71\n      jump\t// in\n    tag_185:\n        /* \"#utility.yul\":7572:7597   */\n      swap3\n      pop\n        /* \"#utility.yul\":7620:7621   */\n      dup3\n        /* \"#utility.yul\":7617:7618   */\n      dup3\n        /* \"#utility.yul\":7613:7622   */\n      add\n        /* \"#utility.yul\":7606:7622   */\n      swap1\n      pop\n        /* \"#utility.yul\":7641:7644   */\n      dup1\n        /* \"#utility.yul\":7638:7639   */\n      dup3\n        /* \"#utility.yul\":7635:7645   */\n      gt\n        /* \"#utility.yul\":7632:7668   */\n      iszero\n      tag_186\n      jumpi\n        /* \"#utility.yul\":7648:7666   */\n      tag_187\n      tag_84\n      jump\t// in\n    tag_187:\n        /* \"#utility.yul\":7632:7668   */\n    tag_186:\n        /* \"#utility.yul\":7484:7675   */\n      swap3\n      swap2\n      pop\n      pop\n      jump\t// out\n\n    auxdata: 0xa2646970667358221220c397375c413cd12df7b7bd8b172133c23218fde60afed7b8bf9ac15a97cc5e8a64736f6c634300081a0033\n}\n",
				"bytecode": {
					"linkReferences": {},
					"object": "6080604052674563918244f400005f553480156019575f80fd5b50610921806100275f395ff3fe60806040526004361061006f575f3560e01c80636e5b6b281161004d5780636e5b6b281461010357806398d5fdca1461013f578063b60d428814610169578063dc0d3dff146101735761006f565b8063098de820146100735780630d8e6e2c1461009d5780633e47d6f3146100c7575b5f80fd5b34801561007e575f80fd5b506100876101af565b60405161009491906104b8565b60405180910390f35b3480156100a8575f80fd5b506100b16101b4565b6040516100be91906104b8565b60405180910390f35b3480156100d2575f80fd5b506100ed60048036038101906100e8919061052f565b61023b565b6040516100fa91906104b8565b60405180910390f35b34801561010e575f80fd5b5061012960048036038101906101249190610584565b610250565b60405161013691906104b8565b60405180910390f35b34801561014a575f80fd5b50610153610288565b60405161016091906104b8565b60405180910390f35b61017161032d565b005b34801561017e575f80fd5b5061019960048036038101906101949190610584565b610465565b6040516101a691906105be565b60405180910390f35b5f5481565b5f73694aa1769357215de4fac081bf1f309adc32530673ffffffffffffffffffffffffffffffffffffffff166354fd4d506040518163ffffffff1660e01b8152600401602060405180830381865afa158015610212573d5f803e3d5ffd5b505050506040513d601f19601f8201168201806040525081019061023691906105eb565b905090565b6002602052805f5260405f205f915090505481565b5f8061025a610288565b90505f670de0b6b3a764000084836102729190610643565b61027c91906106b1565b90508092505050919050565b5f8073694aa1769357215de4fac081bf1f309adc32530690505f8173ffffffffffffffffffffffffffffffffffffffff1663feaf968c6040518163ffffffff1660e01b815260040160a060405180830381865afa1580156102eb573d5f803e3d5ffd5b505050506040513d601f19601f8201168201806040525081019061030f9190610753565b5050509150506402540be4008161032691906107ca565b9250505090565b5f5461033834610250565b1015610379576040517f08c379a00000000000000000000000000000000000000000000000000000000081526004016103709061089a565b60405180910390fd5b600133908060018154018082558091505060019003905f5260205f20015f9091909190916101000a81548173ffffffffffffffffffffffffffffffffffffffff021916908373ffffffffffffffffffffffffffffffffffffffff1602179055503460025f3373ffffffffffffffffffffffffffffffffffffffff1673ffffffffffffffffffffffffffffffffffffffff1681526020019081526020015f205461042291906108b8565b60025f3373ffffffffffffffffffffffffffffffffffffffff1673ffffffffffffffffffffffffffffffffffffffff1681526020019081526020015f2081905550565b60018181548110610474575f80fd5b905f5260205f20015f915054906101000a900473ffffffffffffffffffffffffffffffffffffffff1681565b5f819050919050565b6104b2816104a0565b82525050565b5f6020820190506104cb5f8301846104a9565b92915050565b5f80fd5b5f73ffffffffffffffffffffffffffffffffffffffff82169050919050565b5f6104fe826104d5565b9050919050565b61050e816104f4565b8114610518575f80fd5b50565b5f8135905061052981610505565b92915050565b5f60208284031215610544576105436104d1565b5b5f6105518482850161051b565b91505092915050565b610563816104a0565b811461056d575f80fd5b50565b5f8135905061057e8161055a565b92915050565b5f60208284031215610599576105986104d1565b5b5f6105a684828501610570565b91505092915050565b6105b8816104f4565b82525050565b5f6020820190506105d15f8301846105af565b92915050565b5f815190506105e58161055a565b92915050565b5f60208284031215610600576105ff6104d1565b5b5f61060d848285016105d7565b91505092915050565b7f4e487b71000000000000000000000000000000000000000000000000000000005f52601160045260245ffd5b5f61064d826104a0565b9150610658836104a0565b9250828202610666816104a0565b9150828204841483151761067d5761067c610616565b5b5092915050565b7f4e487b71000000000000000000000000000000000000000000000000000000005f52601260045260245ffd5b5f6106bb826104a0565b91506106c6836104a0565b9250826106d6576106d5610684565b5b828204905092915050565b5f69ffffffffffffffffffff82169050919050565b6106ff816106e1565b8114610709575f80fd5b50565b5f8151905061071a816106f6565b92915050565b5f819050919050565b61073281610720565b811461073c575f80fd5b50565b5f8151905061074d81610729565b92915050565b5f805f805f60a0868803121561076c5761076b6104d1565b5b5f6107798882890161070c565b955050602061078a8882890161073f565b945050604061079b888289016105d7565b93505060606107ac888289016105d7565b92505060806107bd8882890161070c565b9150509295509295909350565b5f6107d482610720565b91506107df83610720565b92508282026107ed81610720565b91507f800000000000000000000000000000000000000000000000000000000000000084145f8412161561082457610823610616565b5b828205841483151761083957610838610616565b5b5092915050565b5f82825260208201905092915050565b7f6469646e27742073656e7420656e6f75676820455448000000000000000000005f82015250565b5f610884601683610840565b915061088f82610850565b602082019050919050565b5f6020820190508181035f8301526108b181610878565b9050919050565b5f6108c2826104a0565b91506108cd836104a0565b92508282019050808211156108e5576108e4610616565b5b9291505056fea2646970667358221220c397375c413cd12df7b7bd8b172133c23218fde60afed7b8bf9ac15a97cc5e8a64736f6c634300081a0033",
					"opcodes": "PUSH1 0x80 PUSH1 0x40 MSTORE PUSH8 0x4563918244F40000 PUSH0 SSTORE CALLVALUE DUP1 ISZERO PUSH1 0x19 JUMPI PUSH0 DUP1 REVERT JUMPDEST POP PUSH2 0x921 DUP1 PUSH2 0x27 PUSH0 CODECOPY PUSH0 RETURN INVALID PUSH1 0x80 PUSH1 0x40 MSTORE PUSH1 0x4 CALLDATASIZE LT PUSH2 0x6F JUMPI PUSH0 CALLDATALOAD PUSH1 0xE0 SHR DUP1 PUSH4 0x6E5B6B28 GT PUSH2 0x4D JUMPI DUP1 PUSH4 0x6E5B6B28 EQ PUSH2 0x103 JUMPI DUP1 PUSH4 0x98D5FDCA EQ PUSH2 0x13F JUMPI DUP1 PUSH4 0xB60D4288 EQ PUSH2 0x169 JUMPI DUP1 PUSH4 0xDC0D3DFF EQ PUSH2 0x173 JUMPI PUSH2 0x6F JUMP JUMPDEST DUP1 PUSH4 0x98DE820 EQ PUSH2 0x73 JUMPI DUP1 PUSH4 0xD8E6E2C EQ PUSH2 0x9D JUMPI DUP1 PUSH4 0x3E47D6F3 EQ PUSH2 0xC7 JUMPI JUMPDEST PUSH0 DUP1 REVERT JUMPDEST CALLVALUE DUP1 ISZERO PUSH2 0x7E JUMPI PUSH0 DUP1 REVERT JUMPDEST POP PUSH2 0x87 PUSH2 0x1AF JUMP JUMPDEST PUSH1 0x40 MLOAD PUSH2 0x94 SWAP2 SWAP1 PUSH2 0x4B8 JUMP JUMPDEST PUSH1 0x40 MLOAD DUP1 SWAP2 SUB SWAP1 RETURN JUMPDEST CALLVALUE DUP1 ISZERO PUSH2 0xA8 JUMPI PUSH0 DUP1 REVERT JUMPDEST POP PUSH2 0xB1 PUSH2 0x1B4 JUMP JUMPDEST PUSH1 0x40 MLOAD PUSH2 0xBE SWAP2 SWAP1 PUSH2 0x4B8 JUMP JUMPDEST PUSH1 0x40 MLOAD DUP1 SWAP2 SUB SWAP1 RETURN JUMPDEST CALLVALUE DUP1 ISZERO PUSH2 0xD2 JUMPI PUSH0 DUP1 REVERT JUMPDEST POP PUSH2 0xED PUSH1 0x4 DUP1 CALLDATASIZE SUB DUP2 ADD SWAP1 PUSH2 0xE8 SWAP2 SWAP1 PUSH2 0x52F JUMP JUMPDEST PUSH2 0x23B JUMP JUMPDEST PUSH1 0x40 MLOAD PUSH2 0xFA SWAP2 SWAP1 PUSH2 0x4B8 JUMP JUMPDEST PUSH1 0x40 MLOAD DUP1 SWAP2 SUB SWAP1 RETURN JUMPDEST CALLVALUE DUP1 ISZERO PUSH2 0x10E JUMPI PUSH0 DUP1 REVERT JUMPDEST POP PUSH2 0x129 PUSH1 0x4 DUP1 CALLDATASIZE SUB DUP2 ADD SWAP1 PUSH2 0x124 SWAP2 SWAP1 PUSH2 0x584 JUMP JUMPDEST PUSH2 0x250 JUMP JUMPDEST PUSH1 0x40 MLOAD PUSH2 0x136 SWAP2 SWAP1 PUSH2 0x4B8 JUMP JUMPDEST PUSH1 0x40 MLOAD DUP1 SWAP2 SUB SWAP1 RETURN JUMPDEST CALLVALUE DUP1 ISZERO PUSH2 0x14A JUMPI PUSH0 DUP1 REVERT JUMPDEST POP PUSH2 0x153 PUSH2 0x288 JUMP JUMPDEST PUSH1 0x40 MLOAD PUSH2 0x160 SWAP2 SWAP1 PUSH2 0x4B8 JUMP JUMPDEST PUSH1 0x40 MLOAD DUP1 SWAP2 SUB SWAP1 RETURN JUMPDEST PUSH2 0x171 PUSH2 0x32D JUMP JUMPDEST STOP JUMPDEST CALLVALUE DUP1 ISZERO PUSH2 0x17E JUMPI PUSH0 DUP1 REVERT JUMPDEST POP PUSH2 0x199 PUSH1 0x4 DUP1 CALLDATASIZE SUB DUP2 ADD SWAP1 PUSH2 0x194 SWAP2 SWAP1 PUSH2 0x584 JUMP JUMPDEST PUSH2 0x465 JUMP JUMPDEST PUSH1 0x40 MLOAD PUSH2 0x1A6 SWAP2 SWAP1 PUSH2 0x5BE JUMP JUMPDEST PUSH1 0x40 MLOAD DUP1 SWAP2 SUB SWAP1 RETURN JUMPDEST PUSH0 SLOAD DUP2 JUMP JUMPDEST PUSH0 PUSH20 0x694AA1769357215DE4FAC081BF1F309ADC325306 PUSH20 0xFFFFFFFFFFFFFFFFFFFFFFFFFFFFFFFFFFFFFFFF AND PUSH4 0x54FD4D50 PUSH1 0x40 MLOAD DUP2 PUSH4 0xFFFFFFFF AND PUSH1 0xE0 SHL DUP2 MSTORE PUSH1 0x4 ADD PUSH1 0x20 PUSH1 0x40 MLOAD DUP1 DUP4 SUB DUP2 DUP7 GAS STATICCALL ISZERO DUP1 ISZERO PUSH2 0x212 JUMPI RETURNDATASIZE PUSH0 DUP1 RETURNDATACOPY RETURNDATASIZE PUSH0 REVERT JUMPDEST POP POP POP POP PUSH1 0x40 MLOAD RETURNDATASIZE PUSH1 0x1F NOT PUSH1 0x1F DUP3 ADD AND DUP3 ADD DUP1 PUSH1 0x40 MSTORE POP DUP2 ADD SWAP1 PUSH2 0x236 SWAP2 SWAP1 PUSH2 0x5EB JUMP JUMPDEST SWAP1 POP SWAP1 JUMP JUMPDEST PUSH1 0x2 PUSH1 0x20 MSTORE DUP1 PUSH0 MSTORE PUSH1 0x40 PUSH0 KECCAK256 PUSH0 SWAP2 POP SWAP1 POP SLOAD DUP2 JUMP JUMPDEST PUSH0 DUP1 PUSH2 0x25A PUSH2 0x288 JUMP JUMPDEST SWAP1 POP PUSH0 PUSH8 0xDE0B6B3A7640000 DUP5 DUP4 PUSH2 0x272 SWAP2 SWAP1 PUSH2 0x643 JUMP JUMPDEST PUSH2 0x27C SWAP2 SWAP1 PUSH2 0x6B1 JUMP JUMPDEST SWAP1 POP DUP1 SWAP3 POP POP POP SWAP2 SWAP1 POP JUMP JUMPDEST PUSH0 DUP1 PUSH20 0x694AA1769357215DE4FAC081BF1F309ADC325306 SWAP1 POP PUSH0 DUP2 PUSH20 0xFFFFFFFFFFFFFFFFFFFFFFFFFFFFFFFFFFFFFFFF AND PUSH4 0xFEAF968C PUSH1 0x40 MLOAD DUP2 PUSH4 0xFFFFFFFF AND PUSH1 0xE0 SHL DUP2 MSTORE PUSH1 0x4 ADD PUSH1 0xA0 PUSH1 0x40 MLOAD DUP1 DUP4 SUB DUP2 DUP7 GAS STATICCALL ISZERO DUP1 ISZERO PUSH2 0x2EB JUMPI RETURNDATASIZE PUSH0 DUP1 RETURNDATACOPY RETURNDATASIZE PUSH0 REVERT JUMPDEST POP POP POP POP PUSH1 0x40 MLOAD RETURNDATASIZE PUSH1 0x1F NOT PUSH1 0x1F DUP3 ADD AND DUP3 ADD DUP1 PUSH1 0x40 MSTORE POP DUP2 ADD SWAP1 PUSH2 0x30F SWAP2 SWAP1 PUSH2 0x753 JUMP JUMPDEST POP POP POP SWAP2 POP POP PUSH5 0x2540BE400 DUP2 PUSH2 0x326 SWAP2 SWAP1 PUSH2 0x7CA JUMP JUMPDEST SWAP3 POP POP POP SWAP1 JUMP JUMPDEST PUSH0 SLOAD PUSH2 0x338 CALLVALUE PUSH2 0x250 JUMP JUMPDEST LT ISZERO PUSH2 0x379 JUMPI PUSH1 0x40 MLOAD PUSH32 0x8C379A000000000000000000000000000000000000000000000000000000000 DUP2 MSTORE PUSH1 0x4 ADD PUSH2 0x370 SWAP1 PUSH2 0x89A JUMP JUMPDEST PUSH1 0x40 MLOAD DUP1 SWAP2 SUB SWAP1 REVERT JUMPDEST PUSH1 0x1 CALLER SWAP1 DUP1 PUSH1 0x1 DUP2 SLOAD ADD DUP1 DUP3 SSTORE DUP1 SWAP2 POP POP PUSH1 0x1 SWAP1 SUB SWAP1 PUSH0 MSTORE PUSH1 0x20 PUSH0 KECCAK256 ADD PUSH0 SWAP1 SWAP2 SWAP1 SWAP2 SWAP1 SWAP2 PUSH2 0x100 EXP DUP2 SLOAD DUP2 PUSH20 0xFFFFFFFFFFFFFFFFFFFFFFFFFFFFFFFFFFFFFFFF MUL NOT AND SWAP1 DUP4 PUSH20 0xFFFFFFFFFFFFFFFFFFFFFFFFFFFFFFFFFFFFFFFF AND MUL OR SWAP1 SSTORE POP CALLVALUE PUSH1 0x2 PUSH0 CALLER PUSH20 0xFFFFFFFFFFFFFFFFFFFFFFFFFFFFFFFFFFFFFFFF AND PUSH20 0xFFFFFFFFFFFFFFFFFFFFFFFFFFFFFFFFFFFFFFFF AND DUP2 MSTORE PUSH1 0x20 ADD SWAP1 DUP2 MSTORE PUSH1 0x20 ADD PUSH0 KECCAK256 SLOAD PUSH2 0x422 SWAP2 SWAP1 PUSH2 0x8B8 JUMP JUMPDEST PUSH1 0x2 PUSH0 CALLER PUSH20 0xFFFFFFFFFFFFFFFFFFFFFFFFFFFFFFFFFFFFFFFF AND PUSH20 0xFFFFFFFFFFFFFFFFFFFFFFFFFFFFFFFFFFFFFFFF AND DUP2 MSTORE PUSH1 0x20 ADD SWAP1 DUP2 MSTORE PUSH1 0x20 ADD PUSH0 KECCAK256 DUP2 SWAP1 SSTORE POP JUMP JUMPDEST PUSH1 0x1 DUP2 DUP2 SLOAD DUP2 LT PUSH2 0x474 JUMPI PUSH0 DUP1 REVERT JUMPDEST SWAP1 PUSH0 MSTORE PUSH1 0x20 PUSH0 KECCAK256 ADD PUSH0 SWAP2 POP SLOAD SWAP1 PUSH2 0x100 EXP SWAP1 DIV PUSH20 0xFFFFFFFFFFFFFFFFFFFFFFFFFFFFFFFFFFFFFFFF AND DUP2 JUMP JUMPDEST PUSH0 DUP2 SWAP1 POP SWAP2 SWAP1 POP JUMP JUMPDEST PUSH2 0x4B2 DUP2 PUSH2 0x4A0 JUMP JUMPDEST DUP3 MSTORE POP POP JUMP JUMPDEST PUSH0 PUSH1 0x20 DUP3 ADD SWAP1 POP PUSH2 0x4CB PUSH0 DUP4 ADD DUP5 PUSH2 0x4A9 JUMP JUMPDEST SWAP3 SWAP2 POP POP JUMP JUMPDEST PUSH0 DUP1 REVERT JUMPDEST PUSH0 PUSH20 0xFFFFFFFFFFFFFFFFFFFFFFFFFFFFFFFFFFFFFFFF DUP3 AND SWAP1 POP SWAP2 SWAP1 POP JUMP JUMPDEST PUSH0 PUSH2 0x4FE DUP3 PUSH2 0x4D5 JUMP JUMPDEST SWAP1 POP SWAP2 SWAP1 POP JUMP JUMPDEST PUSH2 0x50E DUP2 PUSH2 0x4F4 JUMP JUMPDEST DUP2 EQ PUSH2 0x518 JUMPI PUSH0 DUP1 REVERT JUMPDEST POP JUMP JUMPDEST PUSH0 DUP2 CALLDATALOAD SWAP1 POP PUSH2 0x529 DUP2 PUSH2 0x505 JUMP JUMPDEST SWAP3 SWAP2 POP POP JUMP JUMPDEST PUSH0 PUSH1 0x20 DUP3 DUP5 SUB SLT ISZERO PUSH2 0x544 JUMPI PUSH2 0x543 PUSH2 0x4D1 JUMP JUMPDEST JUMPDEST PUSH0 PUSH2 0x551 DUP5 DUP3 DUP6 ADD PUSH2 0x51B JUMP JUMPDEST SWAP2 POP POP SWAP3 SWAP2 POP POP JUMP JUMPDEST PUSH2 0x563 DUP2 PUSH2 0x4A0 JUMP JUMPDEST DUP2 EQ PUSH2 0x56D JUMPI PUSH0 DUP1 REVERT JUMPDEST POP JUMP JUMPDEST PUSH0 DUP2 CALLDATALOAD SWAP1 POP PUSH2 0x57E DUP2 PUSH2 0x55A JUMP JUMPDEST SWAP3 SWAP2 POP POP JUMP JUMPDEST PUSH0 PUSH1 0x20 DUP3 DUP5 SUB SLT ISZERO PUSH2 0x599 JUMPI PUSH2 0x598 PUSH2 0x4D1 JUMP JUMPDEST JUMPDEST PUSH0 PUSH2 0x5A6 DUP5 DUP3 DUP6 ADD PUSH2 0x570 JUMP JUMPDEST SWAP2 POP POP SWAP3 SWAP2 POP POP JUMP JUMPDEST PUSH2 0x5B8 DUP2 PUSH2 0x4F4 JUMP JUMPDEST DUP3 MSTORE POP POP JUMP JUMPDEST PUSH0 PUSH1 0x20 DUP3 ADD SWAP1 POP PUSH2 0x5D1 PUSH0 DUP4 ADD DUP5 PUSH2 0x5AF JUMP JUMPDEST SWAP3 SWAP2 POP POP JUMP JUMPDEST PUSH0 DUP2 MLOAD SWAP1 POP PUSH2 0x5E5 DUP2 PUSH2 0x55A JUMP JUMPDEST SWAP3 SWAP2 POP POP JUMP JUMPDEST PUSH0 PUSH1 0x20 DUP3 DUP5 SUB SLT ISZERO PUSH2 0x600 JUMPI PUSH2 0x5FF PUSH2 0x4D1 JUMP JUMPDEST JUMPDEST PUSH0 PUSH2 0x60D DUP5 DUP3 DUP6 ADD PUSH2 0x5D7 JUMP JUMPDEST SWAP2 POP POP SWAP3 SWAP2 POP POP JUMP JUMPDEST PUSH32 0x4E487B7100000000000000000000000000000000000000000000000000000000 PUSH0 MSTORE PUSH1 0x11 PUSH1 0x4 MSTORE PUSH1 0x24 PUSH0 REVERT JUMPDEST PUSH0 PUSH2 0x64D DUP3 PUSH2 0x4A0 JUMP JUMPDEST SWAP2 POP PUSH2 0x658 DUP4 PUSH2 0x4A0 JUMP JUMPDEST SWAP3 POP DUP3 DUP3 MUL PUSH2 0x666 DUP2 PUSH2 0x4A0 JUMP JUMPDEST SWAP2 POP DUP3 DUP3 DIV DUP5 EQ DUP4 ISZERO OR PUSH2 0x67D JUMPI PUSH2 0x67C PUSH2 0x616 JUMP JUMPDEST JUMPDEST POP SWAP3 SWAP2 POP POP JUMP JUMPDEST PUSH32 0x4E487B7100000000000000000000000000000000000000000000000000000000 PUSH0 MSTORE PUSH1 0x12 PUSH1 0x4 MSTORE PUSH1 0x24 PUSH0 REVERT JUMPDEST PUSH0 PUSH2 0x6BB DUP3 PUSH2 0x4A0 JUMP JUMPDEST SWAP2 POP PUSH2 0x6C6 DUP4 PUSH2 0x4A0 JUMP JUMPDEST SWAP3 POP DUP3 PUSH2 0x6D6 JUMPI PUSH2 0x6D5 PUSH2 0x684 JUMP JUMPDEST JUMPDEST DUP3 DUP3 DIV SWAP1 POP SWAP3 SWAP2 POP POP JUMP JUMPDEST PUSH0 PUSH10 0xFFFFFFFFFFFFFFFFFFFF DUP3 AND SWAP1 POP SWAP2 SWAP1 POP JUMP JUMPDEST PUSH2 0x6FF DUP2 PUSH2 0x6E1 JUMP JUMPDEST DUP2 EQ PUSH2 0x709 JUMPI PUSH0 DUP1 REVERT JUMPDEST POP JUMP JUMPDEST PUSH0 DUP2 MLOAD SWAP1 POP PUSH2 0x71A DUP2 PUSH2 0x6F6 JUMP JUMPDEST SWAP3 SWAP2 POP POP JUMP JUMPDEST PUSH0 DUP2 SWAP1 POP SWAP2 SWAP1 POP JUMP JUMPDEST PUSH2 0x732 DUP2 PUSH2 0x720 JUMP JUMPDEST DUP2 EQ PUSH2 0x73C JUMPI PUSH0 DUP1 REVERT JUMPDEST POP JUMP JUMPDEST PUSH0 DUP2 MLOAD SWAP1 POP PUSH2 0x74D DUP2 PUSH2 0x729 JUMP JUMPDEST SWAP3 SWAP2 POP POP JUMP JUMPDEST PUSH0 DUP1 PUSH0 DUP1 PUSH0 PUSH1 0xA0 DUP7 DUP9 SUB SLT ISZERO PUSH2 0x76C JUMPI PUSH2 0x76B PUSH2 0x4D1 JUMP JUMPDEST JUMPDEST PUSH0 PUSH2 0x779 DUP9 DUP3 DUP10 ADD PUSH2 0x70C JUMP JUMPDEST SWAP6 POP POP PUSH1 0x20 PUSH2 0x78A DUP9 DUP3 DUP10 ADD PUSH2 0x73F JUMP JUMPDEST SWAP5 POP POP PUSH1 0x40 PUSH2 0x79B DUP9 DUP3 DUP10 ADD PUSH2 0x5D7 JUMP JUMPDEST SWAP4 POP POP PUSH1 0x60 PUSH2 0x7AC DUP9 DUP3 DUP10 ADD PUSH2 0x5D7 JUMP JUMPDEST SWAP3 POP POP PUSH1 0x80 PUSH2 0x7BD DUP9 DUP3 DUP10 ADD PUSH2 0x70C JUMP JUMPDEST SWAP2 POP POP SWAP3 SWAP6 POP SWAP3 SWAP6 SWAP1 SWAP4 POP JUMP JUMPDEST PUSH0 PUSH2 0x7D4 DUP3 PUSH2 0x720 JUMP JUMPDEST SWAP2 POP PUSH2 0x7DF DUP4 PUSH2 0x720 JUMP JUMPDEST SWAP3 POP DUP3 DUP3 MUL PUSH2 0x7ED DUP2 PUSH2 0x720 JUMP JUMPDEST SWAP2 POP PUSH32 0x8000000000000000000000000000000000000000000000000000000000000000 DUP5 EQ PUSH0 DUP5 SLT AND ISZERO PUSH2 0x824 JUMPI PUSH2 0x823 PUSH2 0x616 JUMP JUMPDEST JUMPDEST DUP3 DUP3 SDIV DUP5 EQ DUP4 ISZERO OR PUSH2 0x839 JUMPI PUSH2 0x838 PUSH2 0x616 JUMP JUMPDEST JUMPDEST POP SWAP3 SWAP2 POP POP JUMP JUMPDEST PUSH0 DUP3 DUP3 MSTORE PUSH1 0x20 DUP3 ADD SWAP1 POP SWAP3 SWAP2 POP POP JUMP JUMPDEST PUSH32 0x6469646E27742073656E7420656E6F7567682045544800000000000000000000 PUSH0 DUP3 ADD MSTORE POP JUMP JUMPDEST PUSH0 PUSH2 0x884 PUSH1 0x16 DUP4 PUSH2 0x840 JUMP JUMPDEST SWAP2 POP PUSH2 0x88F DUP3 PUSH2 0x850 JUMP JUMPDEST PUSH1 0x20 DUP3 ADD SWAP1 POP SWAP2 SWAP1 POP JUMP JUMPDEST PUSH0 PUSH1 0x20 DUP3 ADD SWAP1 POP DUP2 DUP2 SUB PUSH0 DUP4 ADD MSTORE PUSH2 0x8B1 DUP2 PUSH2 0x878 JUMP JUMPDEST SWAP1 POP SWAP2 SWAP1 POP JUMP JUMPDEST PUSH0 PUSH2 0x8C2 DUP3 PUSH2 0x4A0 JUMP JUMPDEST SWAP2 POP PUSH2 0x8CD DUP4 PUSH2 0x4A0 JUMP JUMPDEST SWAP3 POP DUP3 DUP3 ADD SWAP1 POP DUP1 DUP3 GT ISZERO PUSH2 0x8E5 JUMPI PUSH2 0x8E4 PUSH2 0x616 JUMP JUMPDEST JUMPDEST SWAP3 SWAP2 POP POP JUMP INVALID LOG2 PUSH5 0x6970667358 0x22 SLT KECCAK256 0xC3 SWAP8 CALLDATACOPY TLOAD COINBASE EXTCODECOPY 0xD1 0x2D 0xF7 0xB7 0xBD DUP12 OR 0x21 CALLER 0xC2 ORIGIN XOR REVERT 0xE6 EXP INVALID 0xD7 0xB8 0xBF SWAP11 0xC1 GAS SWAP8 0xCC MCOPY DUP11 PUSH5 0x736F6C6343 STOP ADDMOD BYTE STOP CALLER "
				},
				"gasEstimates": {
					"creation": {
						"codeDepositCost": "467400",
						"executionCost": "22608",
						"totalCost": "490008"
					},
					"external": {
						"addressToAmountFunded(address)": "2847",
						"fund()": "infinite",
						"funders(uint256)": "5010",
						"getConversionRate(uint256)": "infinite",
						"getPrice()": "infinite",
						"getVersion()": "infinite",
						"minimumUsd()": "2425"
					}
				},
				"methodIdentifiers": {
					"addressToAmountFunded(address)": "3e47d6f3",
					"fund()": "b60d4288",
					"funders(uint256)": "dc0d3dff",
					"getConversionRate(uint256)": "6e5b6b28",
					"getPrice()": "98d5fdca",
					"getVersion()": "0d8e6e2c",
					"minimumUsd()": "098de820"
				}
			},
			"storageLayout": {
				"storage": [
					{
						"astId": 52,
						"contract": "FundMe.sol:FundMe",
						"label": "minimumUsd",
						"offset": 0,
						"slot": "0",
						"type": "t_uint256"
					},
					{
						"astId": 55,
						"contract": "FundMe.sol:FundMe",
						"label": "funders",
						"offset": 0,
						"slot": "1",
						"type": "t_array(t_address)dyn_storage"
					},
					{
						"astId": 59,
						"contract": "FundMe.sol:FundMe",
						"label": "addressToAmountFunded",
						"offset": 0,
						"slot": "2",
						"type": "t_mapping(t_address,t_uint256)"
					}
				],
				"types": {
					"t_address": {
						"encoding": "inplace",
						"label": "address",
						"numberOfBytes": "20"
					},
					"t_array(t_address)dyn_storage": {
						"base": "t_address",
						"encoding": "dynamic_array",
						"label": "address[]",
						"numberOfBytes": "32"
					},
					"t_mapping(t_address,t_uint256)": {
						"encoding": "mapping",
						"key": "t_address",
						"label": "mapping(address => uint256)",
						"numberOfBytes": "32",
						"value": "t_uint256"
					},
					"t_uint256": {
						"encoding": "inplace",
						"label": "uint256",
						"numberOfBytes": "32"
					}
				}
			},
			"userdoc": {
				"kind": "user",
				"methods": {},
				"version": 1
			}
		}
	}
}